{
  "contractName": "Voting",
  "abi": [
    {
      "inputs": [],
      "payable": false,
      "stateMutability": "nonpayable",
      "type": "constructor"
    },
    {
      "anonymous": false,
      "inputs": [
        {
          "indexed": false,
          "name": "candidateID",
          "type": "uint256"
        }
      ],
      "name": "AddedCandidate",
      "type": "event"
    },
    {
      "anonymous": false,
      "inputs": [
        {
          "indexed": false,
          "name": "message",
          "type": "string"
        }
      ],
      "name": "VoteResult",
      "type": "event"
    },
    {
      "anonymous": false,
      "inputs": [
        {
          "indexed": false,
          "name": "postID",
          "type": "uint256"
        }
      ],
      "name": "AddedPost",
      "type": "event"
    },
    {
      "constant": false,
      "inputs": [
        {
          "name": "name",
          "type": "bytes32"
        },
        {
          "name": "postID",
          "type": "uint256"
        }
      ],
      "name": "addCandidate",
      "outputs": [],
      "payable": false,
      "stateMutability": "nonpayable",
      "type": "function"
    },
    {
      "constant": false,
      "inputs": [
        {
          "name": "candidateID",
          "type": "uint256"
        }
      ],
      "name": "dropCandidate",
      "outputs": [],
      "payable": false,
      "stateMutability": "nonpayable",
      "type": "function"
    },
    {
      "constant": false,
      "inputs": [
        {
          "name": "candidateID",
          "type": "uint256"
        }
      ],
      "name": "enableCandidate",
      "outputs": [],
      "payable": false,
      "stateMutability": "nonpayable",
      "type": "function"
    },
    {
      "constant": false,
      "inputs": [
        {
          "name": "postName",
          "type": "bytes32"
        }
      ],
      "name": "addPost",
      "outputs": [],
      "payable": false,
      "stateMutability": "nonpayable",
      "type": "function"
    },
    {
      "constant": false,
      "inputs": [
        {
          "name": "voterID",
          "type": "bytes32"
        },
        {
          "name": "candidateID",
          "type": "uint256"
        }
      ],
      "name": "vote",
      "outputs": [],
      "payable": false,
      "stateMutability": "nonpayable",
      "type": "function"
    },
    {
      "constant": true,
      "inputs": [
        {
          "name": "voterID",
          "type": "bytes32"
        },
        {
          "name": "postID",
          "type": "uint256"
        }
      ],
      "name": "hasVoted",
      "outputs": [
        {
          "name": "",
          "type": "bool"
        }
      ],
      "payable": false,
      "stateMutability": "view",
      "type": "function"
    },
    {
      "constant": true,
      "inputs": [
        {
          "name": "candidateID",
          "type": "uint256"
        }
      ],
      "name": "totalVotes",
      "outputs": [
        {
          "name": "",
          "type": "uint256"
        }
      ],
      "payable": false,
      "stateMutability": "view",
      "type": "function"
    },
    {
      "constant": true,
      "inputs": [],
      "name": "getNumOfCandidates",
      "outputs": [
        {
          "name": "",
          "type": "uint256"
        }
      ],
      "payable": false,
      "stateMutability": "view",
      "type": "function"
    },
    {
      "constant": true,
      "inputs": [],
      "name": "getNumOfVoters",
      "outputs": [
        {
          "name": "",
          "type": "uint256"
        }
      ],
      "payable": false,
      "stateMutability": "view",
      "type": "function"
    },
    {
      "constant": true,
      "inputs": [],
      "name": "getNumOfPosts",
      "outputs": [
        {
          "name": "",
          "type": "uint256"
        }
      ],
      "payable": false,
      "stateMutability": "view",
      "type": "function"
    },
    {
      "constant": true,
      "inputs": [
        {
          "name": "postID",
          "type": "uint256"
        }
      ],
      "name": "getPost",
      "outputs": [
        {
          "name": "",
          "type": "uint256"
        },
        {
          "name": "",
          "type": "bytes32"
        }
      ],
      "payable": false,
      "stateMutability": "view",
      "type": "function"
    },
    {
      "constant": true,
      "inputs": [
        {
          "name": "candidateID",
          "type": "uint256"
        }
      ],
      "name": "getCandidate",
      "outputs": [
        {
          "name": "",
          "type": "uint256"
        },
        {
          "name": "",
          "type": "bytes32"
        },
        {
          "name": "",
          "type": "uint256"
        },
        {
          "name": "",
          "type": "uint256"
        },
        {
          "name": "",
          "type": "bytes32"
        }
      ],
      "payable": false,
      "stateMutability": "view",
      "type": "function"
    }
  ],
  "bytecode": "0x608060405234801561001057600080fd5b50336000806101000a81548173ffffffffffffffffffffffffffffffffffffffff021916908373ffffffffffffffffffffffffffffffffffffffff160217905550610b22806100606000396000f3006080604052600436106100ba576000357c0100000000000000000000000000000000000000000000000000000000900463ffffffff16806319e6e158146100bf57806335b8e8201461010057806340731c241461016d57806365fc783c146101bd5780637d75a438146101e8578063840e12f51461021557806388827c16146102505780639ef1204c14610281578063b6a90065146102bc578063c697daee146102e9578063e7edef0814610314578063e8685ba114610367575b600080fd5b3480156100cb57600080fd5b506100ea60048036038101908080359060200190929190505050610392565b6040518082815260200191505060405180910390f35b34801561010c57600080fd5b5061012b600480360381019080803590602001909291905050506103b2565b60405180868152602001856000191660001916815260200184815260200183815260200182600019166000191681526020019550505050505060405180910390f35b34801561017957600080fd5b506101986004803603810190808035906020019092919050505061043d565b6040518083815260200182600019166000191681526020019250505060405180910390f35b3480156101c957600080fd5b506101d261045e565b6040518082815260200191505060405180910390f35b3480156101f457600080fd5b5061021360048036038101908080359060200190929190505050610468565b005b34801561022157600080fd5b5061024e6004803603810190808035600019169060200190929190803590602001909291905050506104f5565b005b34801561025c57600080fd5b5061027f6004803603810190808035600019169060200190929190505050610625565b005b34801561028d57600080fd5b506102ba6004803603810190808035600019169060200190929190803590602001909291905050506106ec565b005b3480156102c857600080fd5b506102e760048036038101908080359060200190929190505050610a0e565b005b3480156102f557600080fd5b506102fe610a9b565b6040518082815260200191505060405180910390f35b34801561032057600080fd5b5061034d600480360381019080803560001916906020019092919080359060200190929190505050610aa5565b604051808215151515815260200191505060405180910390f35b34801561037357600080fd5b5061037c610aec565b6040518082815260200191505060405180910390f35b600060046000838152602001908152602001600020600101549050919050565b60008060008060008560046000888152602001908152602001600020600001546004600089815260200190815260200160002060010154600460008a81526020019081526020016000206002015460066000600460008d8152602001908152602001600020600201548152602001908152602001600020549450945094509450945091939590929450565b60008082600660008581526020019081526020016000205491509150915091565b6000600254905090565b6000809054906101000a900473ffffffffffffffffffffffffffffffffffffffff1673ffffffffffffffffffffffffffffffffffffffff163373ffffffffffffffffffffffffffffffffffffffff161415156104c357600080fd5b60016004600083815260200190815260200160002060030160006101000a81548160ff02191690831515021790555050565b60008060009054906101000a900473ffffffffffffffffffffffffffffffffffffffff1673ffffffffffffffffffffffffffffffffffffffff163373ffffffffffffffffffffffffffffffffffffffff1614151561055257600080fd5b600160008154809291906001019190505590506080604051908101604052808460001916815260200160008152602001838152602001600115158152506004600083815260200190815260200160002060008201518160000190600019169055602082015181600101556040820151816002015560608201518160030160006101000a81548160ff0219169083151502179055509050507fec542c373a064661ffef02d633752debf28f3e6c9f253680822d9ccf8b47aec6816040518082815260200191505060405180910390a1505050565b60008060009054906101000a900473ffffffffffffffffffffffffffffffffffffffff1673ffffffffffffffffffffffffffffffffffffffff163373ffffffffffffffffffffffffffffffffffffffff1614151561068257600080fd5b60036000815480929190600101919050559050816006600083815260200190815260200160002081600019169055507f162de706c5323a77af7a43e84349518a6a1eab41b6329f42476e49e18a8e7acd816040518082815260200191505060405180910390a15050565b600115156004600083815260200190815260200160002060030160009054906101000a900460ff16151514156109a1576000151560056000846000191660001916815260200190815260200160002060010160009054906101000a900460ff16151514156107d157604080519081016040528083600019168152602001600115158152506005600084600019166000191681526020019081526020016000206000820151816000019060001916905560208201518160010160006101000a81548160ff0219169083151502179055509050506002600081548092919060010191905055505b6107f1826004600084815260200190815260200160002060020154610aa5565b15610889577fba6ae3dbd1f39a6286aa8cb6d47d3e2e1aa302819730506f57e9aeb76ad039976040518080602001828103825260258152602001807f596f75206861766520616c726561647920766f74656420666f7220746869732081526020017f706f73742e00000000000000000000000000000000000000000000000000000081525060400191505060405180910390a161099c565b600160056000846000191660001916815260200190815260200160002060020160006004600085815260200190815260200160002060020154815260200190815260200160002060006101000a81548160ff02191690831515021790555060046000828152602001908152602001600020600101600081548092919060010191905055507fba6ae3dbd1f39a6286aa8cb6d47d3e2e1aa302819730506f57e9aeb76ad039976040518080602001828103825260248152602001807f566f746564207375636365737366756c6c7920666f722063757272656e74207081526020017f6f7374210000000000000000000000000000000000000000000000000000000081525060400191505060405180910390a15b610a0a565b7fba6ae3dbd1f39a6286aa8cb6d47d3e2e1aa302819730506f57e9aeb76ad039976040518080602001828103825260198152602001807f43616e64696461746520646f6573206e6f742065786973742e0000000000000081525060200191505060405180910390a15b5050565b6000809054906101000a900473ffffffffffffffffffffffffffffffffffffffff1673ffffffffffffffffffffffffffffffffffffffff163373ffffffffffffffffffffffffffffffffffffffff16141515610a6957600080fd5b60006004600083815260200190815260200160002060030160006101000a81548160ff02191690831515021790555050565b6000600354905090565b6000600560008460001916600019168152602001908152602001600020600201600083815260200190815260200160002060009054906101000a900460ff16905092915050565b60006001549050905600a165627a7a72305820ac3b8a389b5de445e908f82eb5fcbd96965632f2e40c9c2b396d7d1170f8e67c0029",
  "source": "pragma solidity ^0.4.18;\n// written for Solidity version 0.4.18 and above that doesn't break functionality\n\ncontract Voting {\n    event AddedCandidate(uint candidateID);\n    event VoteResult(string message);\n    event AddedPost(uint postID);\n\n    // describes a Voter, which has an id and the ID of the candidate they voted for\n    address owner;\n    constructor() public {\n        owner = msg.sender;\n    }\n\n    modifier onlyOwner {\n        require(msg.sender == owner);\n        _;\n    }\n\n    struct Voter {\n        bytes32 voterID; // bytes32 type are basically strings\n        bool doesExist;\n        mapping (uint => bool) votedPosts; // postId => true/false\n    }\n\n    // describes a Candidate\n    struct Candidate {\n        bytes32 name;\n        uint votes;\n        uint postID;\n        bool doesExist;\n    }\n\n    // These state variables are used keep track of the number of Candidates/Voters\n    // and used to as a way to index them\n    uint numCandidates; // declares a state variable - number Of Candidates\n    uint numVoters;\n\tuint numPosts;\n\n    // Think of these as a hash table, with the key as a uint and value of\n    // the struct Candidate/Voter. These mappings will be used in the majority\n    // of our transactions/calls\n    // These mappings will hold all the candidates and Voters respectively\n    mapping (uint => Candidate) candidates;\n    mapping (bytes32 => Voter) voters;\n    mapping (uint => bytes32) posts;\n\n\n    /* * * * * * * * * * * * * * * * * * * * * * * * * * * * * * * *\n     *  These functions perform transactions, editing the mappings *\n     * * * * * * * * * * * * * * * * * * * * * * * * * * * * * * * */\n\n    function addCandidate(bytes32 name, uint postID) onlyOwner public {\n        // candidateID is effectively the index of the struct\n        uint candidateID = numCandidates++;\n        // Create new Candidate struct with name and saves it to storage.\n        candidates[candidateID] = Candidate(name, 0, postID, true);\n        emit AddedCandidate(candidateID);\n    }\n\n\tfunction dropCandidate(uint candidateID) onlyOwner public {\n        candidates[candidateID].doesExist = false;\n    }\n\n    function enableCandidate(uint candidateID) onlyOwner public {\n        candidates[candidateID].doesExist = true;\n    }\n\n    function addPost(bytes32 postName) onlyOwner public {\n        uint postID = numPosts++;\n        posts[postID] = postName;\n        emit AddedPost(postID);\n    }\n\n    function vote(bytes32 voterID, uint candidateID) public {\n        // checks if the struct exists for that voter\n        if (candidates[candidateID].doesExist == true) {\n        \t// if doesn't exist, set new struct\n        \t// and increment count\n        \tif (voters[voterID].doesExist == false) {\n        \t\tvoters[voterID] = Voter(voterID, true);\n\t\t\t\tnumVoters++;\n        \t}\n        \t// mark that post as voted if not already\n        \tif (hasVoted(voterID, candidates[candidateID].postID)) {\n        \t\temit VoteResult(\"You have already voted for this post.\");\n        \t} else {\n        \t\tvoters[voterID].votedPosts[candidates[candidateID].postID] = true;\n        \t\tcandidates[candidateID].votes++;\n                emit VoteResult(\"Voted successfully for current post!\");\n        \t}\n        } else {\n            // should never occur\n        \temit VoteResult(\"Candidate does not exist.\");\n        }\n    }\n\n    /* * * * * * * * * * * * * * * * * * * * * * * * * *\n     *  Getter Functions, marked by the key word \"view\" *\n     * * * * * * * * * * * * * * * * * * * * * * * * * */\n\n    function hasVoted(bytes32 voterID, uint postID) public view returns(bool) {\n    \t\treturn voters[voterID].votedPosts[postID];\n    }\n\n    // finds the total amount of votes for a specific candidate by looping\n    // through voters\n    function totalVotes(uint candidateID) view public returns (uint) {\n        return candidates[candidateID].votes;\n    }\n\n    function getNumOfCandidates() public view returns(uint) {\n        return numCandidates;\n    }\n\n    function getNumOfVoters() public view returns(uint) {\n        return numVoters;\n    }\n\n    function getNumOfPosts() public view returns(uint) {\n        return numPosts;\n    }\n\n    function getPost(uint postID) public view returns (uint, bytes32) {\n        return (postID,posts[postID]);\n\n    }\n\n    // returns candidate information, including its ID, name, and party\n    function getCandidate(uint candidateID) public view returns (uint, bytes32, uint, uint, bytes32) {\n        return (candidateID, candidates[candidateID].name, candidates[candidateID].votes, candidates[candidateID].postID, posts[candidates[candidateID].postID]);\n    }\n}\n",
  "sourcePath": "/home/tushar/bits_perv/eth-voting-dapp-master/contracts/Voting.sol",
  "compiler": {
    "name": "solc",
    "version": "0.4.24+commit.e67f0147.Emscripten.clang"
  },
  "schemaVersion": "2.0.1",
  "updatedAt": "2018-11-21T13:46:28.217Z"
}